:020000020000FC
:0200000032C00C
:0200040018954D
:02000800189549
:02000C00189545
:02001000189541
:0200140018953D
:02001800189539
:02001C00189535
:02002000189531
:0200240018952D
:02002800189529
:02002C0013C0FF
:02003000189521
:0200340018951D
:02003800189519
:02003C00189515
:02004000189511
:0200440018950D
:02004800189509
:02004C00189505
:02005000189501
:100054000F930FB70F930CB108BB0F910FBF0F9104
:1000640018950FE50DBF04E00EBFE0E6F0E00027B1
:100074000193F430E9F7EF35D9F7EEE1FF27EA957C
:10008400F083E9F703E309B900E000BD00E00BB930
:1000940008ED0AB906E500BD78940FEF07BB00E050
:1000A4000ABB0FEF0BBB40E004D0C899FDCF0CC0D6
:1000B400FBCF0F930FB70F9308B35D9BFACF0CB927
:1000C4000F910FBF0F91089508B317D0433041F03B
:1000D400439500C0413041F0423049F0433051F083
:1000E40040E000E008BBE0CF01E008BBDDCF03E067
:1000F40008BBDACF07E008BBD7CF1FEF2FEF3BE0F9
:0E0104001A95F1F72A95E1F73A95D1F708958B
:00000001FF
